:020000040000FA
:060000000A128A110C280F
:10000800FE00030EF1000A08F2000A128A116D2898
:100018000A128A110F2883010A128A1190280330C4
:1000280083160317880089010F3083160313850090
:1000380088018312031385018801831603130F17A0
:100048008F160F160F149F131F129F12831203137C
:100058001F083F3980389F00C3309F058530F30063
:10006800F30B3428831203131F148530F300F30BAA
:100078003B288316031307158714FA3092003F3084
:100088008312031397051D08F0390C389D001708D3
:10009800F0390C3897000F3095000F309B00CF30A7
:1000A80097051D129D128C100330920412158C1C9A
:1000B8005E285F285B288C108316031307118710AE
:1000C800831203130C13831603130C170B178B17C8
:1000D8000800831203130C1F7228732889281F0C29
:1000E800F000700C0F39003A031D7B287C28882803
:1000F8001E08F0000310700C7D3E95001E08F000ED
:100108000310700C7D3E9B000C1372088A00710E60
:100118008300FE0E7E0E09000A128A1113200A12AD
:100128008A11831203139F14C3309F0598280A125B
:040138008A110C28F4
:04400E00C430FF3F7C
:00000001FF
