:020000040000FA
:060000000A128A110C280F
:10000800FE00030EF6000A08F7000A128A11992D5D
:100018000A128A110F28F801F901FA01FB01FC0103
:1000280083120313AC01AD01AE01AF01B00183012E
:100038000A128A11062F023083120313AA00043011
:10004800A900B930A800A80B2728A90B2728AA0BB4
:1000580027282E28283083120313A1008430A200F9
:100068000A128A1153270A128A11023083120313C3
:10007800AA000430A900B930A800A80B4128A90B90
:100088004128AA0B41284828643083120313A10091
:100098008430A2000A128A1153270A128A110230E8
:1000A80083120313AA000430A900B930A800A80BD2
:1000B8005B28A90B5B28AA0B5B286228D230831225
:1000C8000313A1008430A2000A128A1153270A12CE
:1000D8008A11023083120313AA000430A900B93030
:1000E800A800A80B7528A90B7528AA0B75287C28C9
:1000F800993083120313A1008430A2000A128A11D6
:1001080053270A128A11831203138C1E8C288D28F8
:10011800872831301A06031D92289328772A4730FA
:1001280083120313A1008430A2000A128A115327F4
:100138000A128A11023083120313AA000430A9009C
:10014800B930A800A80BA628A90BA628AA0BA62890
:10015800AD28AC3083120313A1008430A2000A1228
:100168008A1153270A128A11023083120313AA0034
:100178000430A900B930A800A80BC028A90BC028D2
:10018800AA0BC028C728BF3083120313A1008430EC
:10019800A2000A128A1153270A128A110230831206
:1001A8000313AA000430A900B930A800A80BDA2864
:1001B800A90BDA28AA0BDA28E12890308312031356
:1001C800A1008530A2000A128A1153270A128A1147
:1001D800831203138C1EF128F228EC2831301A06FA
:1001E800031DF728F8287229F53083120313A1009C
:1001F8008430A2000A128A1153270A128A11023087
:1002080083120313AA000430A900B930A800A80B70
:100218000B29A90B0B29AA0B0B29122916308312BB
:100228000313A1008530A2000A128A1153270A126B
:100238008A11023083120313AA000430A900B930CE
:10024800A800A80B2529A90B2529AA0B25292C29A3
:10025800063083120313A1008530A2000A128A1106
:1002680053270A128A11023083120313AA0004309A
:10027800A900B930A800A80B3F29A90B3F29AA0B50
:100288003F2946293E3083120313A1008530A2007E
:100298000A128A1153270A128A11831203138C1E19
:1002A80056295729512961301A06031D5C295D29F1
:1002B8006029FA309500722962301A06031D6529F3
:1002C800662969297D309500722963301A06031D55
:1002D8006E296F297229BC309500722932301A06AE
:1002E800031D77297829F229803083120313A1008E
:1002F8008430A2000A128A1153270A128A11023086
:1003080083120313AA000430A900B930A800A80B6F
:100318008B29A90B8B29AA0B8B29922924308312AC
:100328000313A1008530A2000A128A1153270A126A
:100338008A11023083120313AA000430A900B930CD
:10034800A800A80BA529A90BA529AA0BA529AC29A2
:10035800643083120313A1008530A2000A128A11A7
:1003680053270A128A11023083120313AA00043099
:10037800A900B930A800A80BBF29A90BBF29AA0B4F
:10038800BF29C6293E3083120313A1008530A2007D
:100398000A128A1153270A128A11831203138C1E18
:1003A800D629D729D12961301A06031DDC29DD2970
:1003B800E029FA309B00F22962301A06031DE5296C
:1003C800E629E9297D309B00F22963301A06031DCE
:1003D800EE29EF29F229BC309B00F22933301A06A6
:1003E800031DF729F829602BE43083120313A100B9
:1003F8008430A2000A128A1153270A128A11023085
:1004080083120313AA000430A900B930A800A80B6E
:100418000B2AA90B0B2AAA0B0B2A122A313083129A
:100428000313A1008530A2000A128A1153270A1269
:100438008A11023083120313AA000430A900B930CC
:10044800A800A80B252AA90B252AAA0B252A2C2A9D
:10045800703083120313A1008530A2000A128A119A
:1004680053270A128A11023083120313AA00043098
:10047800A900B930A800A80B3F2AA90B3F2AAA0B4C
:100488003F2A462A583083120313A1008530A20060
:100498000A128A1153270A128A11831203138C1E17
:1004A800562A572A512A61301A06031D5C2A5D2AEA
:1004B800622AFF30AE000030AF00602B62301A06AF
:1004C800031D672A682A6B2AAE01AF01602B6330CF
:1004D8001A06031D702A712A762A7F30AE00003072
:1004E800AF00602B602B32301A06031D7C2A7D2A50
:1004F8003D2B063083120313AA001330A900AD3038
:10050800A800A80B852AA90B852AAA0B852A0030E2
:1005180083120313A1008430A2000A128A11532700
:100528000A128A11023083120313AA000430A900A8
:10053800B930A800A80B9E2AA90B9E2AAA0B9E2AAE
:10054800A52A4B3083120313A1008530A2000A129A
:100558008A1153270A128A11023083120313AA0040
:100568000430A900B930A800A80BB82AA90BB82AEA
:10057800AA0BB82ABF2A7C3083120313A100853046
:10058800A2000A128A1153270A128A11831203132E
:100598008C1ECF2AD02ACA2A61301A06031DD52AF2
:1005A800D62AFF2A06141030A8002808A0007A08C6
:1005B8000A128A117B270A128A1111308312031337
:1005C800A8002808A00079080A128A117B270A12B5
:1005D8008A110B3083120313AA002630A9005D305C
:1005E800A800A80BF52AA90BF52AAA0BF52A83124D
:1005F80003130610602B62301A06031D042B052B0B
:10060800762A1F10861410300A128A11B9270A1286
:100618008A1183120313A8002808FA0011300A125D
:100628008A11B9270A128A1183120313A80028080D
:10063800F9007A08A8000310280C7D3E9500790877
:10064800A8000310280C7D3E9B001A308312031368
:10065800AA005E30A9006D30A800A80B312BA90BA9
:10066800312BAA0B312B382B831203131F1486103E
:10067800602B33301A06031D422B432B602B0630A8
:1006880083120313AA001330A900AD30A800A80BE9
:100698004B2BA90B4B2BAA0B4B2B87308312031325
:1006A800A1008530A2000A128A1153270A128A1162
:1006B80083120313B00186120800FF1B6B2B8313F0
:1006C8007F1883170008840A0319FF0A08007F08A7
:0E06D8007F398A000408840A0319FF0A820091
:100800000D340D345134753465342034643465341A
:10081000733465346134203468346134633465344E
:100820007234203465346E3420346C3461342034B6
:100830006D3465346D346F3472346934613420340E
:1008400045344534503452344F344D343A34003406
:100850000D34513475346534203461346334633479
:1008600069346F346E3420346434653473346534E1
:100870006134203465346A346534633475347434D7
:10088000613472343F343A3420340D3400340D3442
:100890000D3451347534653420346D346F34743410
:1008A0006F347234203464346534733465346134A5
:1008B000203463346F346E34743472346F346C3477
:1008C000613472343A3400342034203420342034FB
:1008D000283431342934203443346F346E34743442
:1008E00072346F346C346134723420346D346F344C
:1008F00074346F3472346534733420340D340034FE
:100900000D340D34513475346534203461346C3415
:1009100074347534723461342034643465346C3426
:10092000203461346C34653472346F346E343A344C
:100930000034203420342034203428343334293413
:1009400020345434653472346D3469346E34613417
:10095000723420340D3400340D340D3420342834F6
:100960003134293453346534723476346F346D3411
:100970006F3474346F3472342034313400340D34B5
:100980000D342034283432342934533465347234ED
:1009900076346F346D346F3474346F347234203481
:1009A000323400342034203420342034283432349B
:1009B0002934203445344534503452344F344D3486
:1009C000203420340D3400340D340D34513475345A
:1009D00065342034763465346C346F346334693470
:1009E0006434613464343A3400340D340D34513499
:1009F0007534653420346434693472346534633456
:100A0000633469346F346E343A3400340D340D3449
:100A1000203428346234293449347A3471347534BA
:100A20006934653472346434613400340D340D3407
:100A300020342834613429344434653472346534C4
:100A400063346834613400340D340D342034283478
:100A5000613429344134723472346934623461341B
:100A600000340D340D3420342834613429344934B1
:100A70006C346534673461346C3400340D340D34B7
:100A80002034283463342934433465346E34743468
:100A900072346F3400340D340D3420342834613412
:100AA000293447347234613462346134723400342E
:100AB0000D340D3420342834633429344C346534F7
:100AC000673461346C3400340D340D3420342834F0
:100AD000623429344134623461346A346F3400340E
:100AE0000D340D34203428346234293450346134C8
:100AF00072346134723400340D340D3420342834AF
:100B0000623429344C3465346534723400340D3425
:100B10000D344134643469346F3473340D3400342B
:100B20000D340D34203428343334293444344334E0
:100B30000034831203130C1F9E2D9F2DE02D1F0CDC
:100B4000F300730C0F39003A031DA72DA82DB72D04
:100B50001E08F3000310730C7F3E95001E08F3007F
:100B60000310730C7F3EF4007408FA00DF2D1F0C95
:100B7000F300730C0F39013A031DBF2DC02DCF2D8B
:100B80001E08F3000310730C7F3E9B001E08F30049
:100B90000310730C7F3EF4007408F900DF2D1F0C66
:100BA000F300730C0F39023A031DD72DD82DDF2D1A
:100BB0001E08F300F4017308AE007408AF000C13B4
:100BC0000B1CE32DE42D452E8618E72DE82D1B2E5A
:100BD0001F10061717300A128A11CE270A128A111F
:100BE000F3007308FA0018300A128A11CE270A128D
:100BF0008A11F3007308F9007A08F3000310730CEC
:100C00007F3E8312031395007908F3000310730CE1
:100C10007F3E9B000B30F5002630F4005D30F30082
:100C2000F30B102EF40B102EF50B102E172E831233
:100C300003131F14442E06181E2E1F2E422E861735
:100C40001730F3007308F0007A080A128A119D2702
:100C50000A128A111830F3007308F00079080A129A
:100C60008A119D270A128A110B30F5002630F400F4
:100C70005D30F300F30B3A2EF40B3A2EF50B3A2EBF
:100C8000412E442E061386130B100B1D482E492EA1
:100C9000712E013083120313AC070318AD0A003024
:100CA000AD072F08803AF3002D08803A7302031D28
:100CB0005B2E2C082E0203185E2E5F2E642E8312EC
:100CC000031308118811682E831203130815881561
:100CD0002C0A2D04031D6D2E6E2E702EAC01AD015D
:100CE0000B1177088A00760E8300FE0E7E0E090037
:100CF0000730831603178800890107308316031312
:100D00008500880107308600033095000330960087
:100D100083120313860185018801831603130F17BD
:100D20008F160F160F149F131F129F128312031397
:100D30001F083F3980389F00C3309F0584308312DD
:100D40000313A000A00BA22E0000831203131F1494
:100D5000843083120313A000A00BAC2E0000831676
:100D6000031307158714FA3092003F3083120313E0
:100D700097051D08F0390C389D001708F0390C381C
:100D800097000F3095000F309B00CF3097051D1254
:100D90009D1283160313811281110108F83903385B
:100DA0008100F6308312031381008C10033092040B
:100DB00012158C1CDC2EDD2ED92E8C1083160313FD
:100DC00007118710831203130C13831603130C17D8
:100DD0000B178B178B160B118B150B10811315141A
:100DE00095141614961418121815831603178715E0
:100DF000CF308316031399009A01831203139817B7
:100E00001813181683160313981608000A128A116D
:100E100078260A128A11831203139F143003031DCC
:100E2000122F132F182F0A128A111F200A128A114B
:100E3000831203139F181D2F1E2F0E2F1F0CAB00A4
:100E40002B0C0F39003A031D262F272F2C2F1F089C
:100E5000C33904389F00452F1F0CAB002B0C0F39F2
:100E6000013A031D342F352F3A2F1F08C339083894
:100E70009F00452F1F0CAB002B0C0F39023A031DAE
:100E8000422F432F452FC3309F0584308312031315
:100E9000AB00AB0B492F0000831203139F140E2FDE
:100EA0000A128A110C28233083120313A30023088B
:100EB000A600602F27080A128A11DF270A128A115A
:100EC000831203132208A4002108A300A10A031916
:100ED000A20A2408FF00230884000A128A11612351
:100EE0000A128A11A5002508A7002708031D792FDB
:100EF0007A2F5A2F080083120313A10020088312AF
:100F000003178D00831203132108831203178C002B
:100F10008B13831603178C130C1555308D00AA30D4
:100F20008D008C14831203130D1E972F982F922F70
:100F30000D12831603170C110800F10070088312BC
:100F400003178D0071088C008B13831603178C1305
:100F50000C1555308D00AA308D008C1483120313AC
:100F60000D1EB32FB42FAE2F0D12831603170C11C5
:100F7000080083120313A1002108831203178D00B8
:100F8000831603178C130C14831203170C08831297
:100F90000313A0002008A20022080800F100710835
:100FA000831203178D00831603178C130C148312FE
:100FB00003170C08F0007008F20072080800831292
:100FC0000313A0000C1EE52FE62FE22F2008990046
:020FD000080017
:04400E00C420FF3F8C
:00000001FF
