:020000040000FA
:060000000A128A110C280F
:10000800FE00030EF6000A08F7000A128A111E28DD
:100018000A128A110F28F801F901FA01FB01FC0103
:1000280083120313A001A101A201A30183010A12F3
:100038008A117029831203130C1F2328242861288E
:100048001F0CF300730C0F39003A031D2C282D28C0
:1000580038281E08F3000310730C7F3E95001E0815
:10006800F3007308FA0060281F0CF300730C0F39B3
:10007800013A031D402841284C281E08F3000310AC
:10008800730C7D3E9B001E08F3007308F90060287E
:100098001F0CF300730C0F39023A031D542855281E
:1000A80060281E08F300F4017308A2007408A30076
:1000B8002208F3007308F8000C130B1C6428652849
:1000C800C1288618682869288D281F100617173038
:1000D8000A128A11CD210A128A11F3007308FA0054
:1000E80018300A128A11CD210A128A11F3007308F6
:1000F800F90019300A128A11CD210A128A11F30067
:100108007308F8007A0883120313950079089B0096
:10011800C028061890289128BE2886171730F300A3
:100128007308F0007A080A128A11B1210A128A119A
:100138001830F3007308F00079080A128A11B12107
:100148000A128A111930F3007308F00078080A12AD
:100158008A11B1210A128A110B30F5002630F400F9
:100168005D30F300F30BB628F40BB628F50BB62870
:10017800BD28C028061386130B100B1DC428C528DC
:10018800ED28013083120313A0070318A10A0030D9
:10019800A1072308803AF3002108803A7302031D5F
:1001A800D728200822020318DA28DB28E02883123F
:1001B800031308118811E4288312031308158815FE
:1001C800200A2104031DE928EA28EC28A001A1013E
:1001D8000B1177088A00760E8300FE0E7E0E09004A
:1001E8000730831603178800890107308316031325
:1001F800850088010730860003309500033096009B
:1002080083120313860185018801831603130F17D0
:100218008F160F160F149F131F129F1283120313AA
:100228001F083F3980389F00C3309F0584308312F0
:100238000313A400A40B1E290000831203131F1428
:10024800843083120313A400A40B2829000083160A
:10025800031307158714FA3092003F3083120313F3
:1002680097051D08F0390C389D001708F0390C382F
:1002780097000F3095000F309B00CF3097051D1267
:100288009D1283160313811281110108F83903386E
:100298008100F6308312031381008C10033092041E
:1002A80012158C1C5829592955298C1083160313AB
:1002B80007118710831203130C13831603130C17EB
:1002C8000B178B178B160B118B150B10811315142D
:1002D80095141614961408000A128A11F4200A12AA
:1002E8008A11831203139F149F187B297C2978296C
:1002F8001F0CA500250C0F39003A031D84298529F8
:100308008A291F08C33904389F00A3291F0CA50098
:10031800250C0F39013A031D9229932998291F08A2
:10032800C33908389F00A3291F0CA500250C0F39D5
:10033800023A031DA029A129A329C3309F058430AF
:1003480083120313A500A50BA7290000831203132A
:100358009F1478290A128A110C28F1007008831258
:1003680003178D0071088C008B13831603178C13E9
:100378000C1555308D00AA308D008C148312031390
:100388000D1EC729C829C2290D12831603170C117F
:100398000800F1007108831203178D0083160317F4
:1003A8008C130C14831203170C08F0007008F20069
:0403B80072080800BF
:04400E00C420FF3F8C
:00000001FF
