:020000040000FA
:060000000A128A110C280F
:10000800FE00030EF6000A08F7000A128A11112EE4
:100018000A128A110F28F801F901FA01FB01FC0103
:10002800FD0183120313AC01AD01AE01AF01B001B4
:10003800B10183010A128A11632B02308312031360
:10004800AA000430A900B930A800A80B2928A90BD8
:100058002928AA0B29283028AA3083120313A100C3
:100068008430A2000A128A11BA270A128A110230B1
:1000780083120313AA000430A900B930A800A80B02
:100088004328A90B4328AA0B43284A288230831205
:100098000313A1008530A2000A128A11BA270A1296
:1000A8008A11023083120313AA000430A900B93060
:1000B800A800A80B5D28A90B5D28AA0B5D28642859
:1000C800C93083120313A1008430A2000A128A11D6
:1000D800BA270A128A11023083120313AA000430C5
:1000E800A900B930A800A80B7728A90B7728AA0B74
:1000F80077287E28363083120313A1008530A200AA
:100108000A128A11BA270A128A11831203138C1E43
:100118008E288F28892831301A06031D942895289F
:10012800792AE73083120313A1008430A2000A124F
:100138008A11BA270A128A11023083120313AA00FD
:100148000430A900B930A800A80BA828A90BA82832
:10015800AA0BA828AF285C3083120313A1008530AE
:10016800A2000A128A11BA270A128A1102308312CF
:100178000313AA000430A900B930A800A80BC228AC
:10018800A90BC228AA0BC228C9286F3083120313EF
:10019800A1008530A2000A128A11BA270A128A1110
:1001A800023083120313AA000430A900B930A80052
:1001B800A80BDC28A90BDC28AA0BDC28E328B6301E
:1001C80083120313A1008530A2000A128A11BA27EC
:1001D8000A128A11831203138C1EF328F428EE28BE
:1001E80031301A06031DF928FA287429323083128F
:1001F8000313A1008430A2000A128A11BA270A1236
:100208008A11023083120313AA000430A900B930FE
:10021800A800A80B0D29A90B0D29AA0B0D29142933
:10022800C53083120313A1008530A2000A128A1177
:10023800BA270A128A11023083120313AA00043063
:10024800A900B930A800A80B2729A90B2729AA0BB0
:1002580027292E29A63083120313A1008530A20076
:100268000A128A11BA270A128A110230831203135A
:10027800AA000430A900B930A800A80B4129A90B8D
:100288004129AA0B41294829E03083120313A10010
:100298008530A2000A128A11BA270A128A1183121B
:1002A80003138C1E58295929532961301A06031D36
:1002B8005E295F296229FA309500742962301A068E
:1002C800031D672968296B297D30950074296330DF
:1002D8001A06031D702971297429BC3095007429E8
:1002E80032301A06031D79297A29F42984308312B9
:1002F8000313A1008430A2000A128A11BA270A1235
:100308008A11023083120313AA000430A900B930FD
:10031800A800A80B8D29A90B8D29AA0B8D29942932
:10032800D33083120313A1008530A2000A128A1168
:10033800BA270A128A11023083120313AA00043062
:10034800A900B930A800A80BA729A90BA729AA0BAF
:10035800A729AE29FA3083120313A1008530A20021
:100368000A128A11BA270A128A1102308312031359
:10037800AA000430A900B930A800A80BC129A90B0C
:10038800C129AA0BC129C829E03083120313A1008F
:100398008530A2000A128A11BA270A128A1183121A
:1003A80003138C1ED829D929D32961301A06031DB5
:1003B800DE29DF29E229FA309B00F42962301A0687
:1003C800031DE729E829EB297D309B00F4296330D8
:1003D8001A06031DF029F129F429BC309B00F429E1
:1003E80033301A06031DF929FA29622B00308312CB
:1003F8000313A1008430A2000A128A11BA270A1234
:100408008A11023083120313AA000430A900B930FC
:10041800A800A80B0D2AA90B0D2AAA0B0D2A142A2D
:10042800203083120313A1008530A2000A128A111A
:10043800BA270A128A11023083120313AA00043061
:10044800A900B930A800A80B272AA90B272AAA0BAC
:10045800272A2E2A943083120313A1008530A20084
:100468000A128A11BA270A128A1102308312031358
:10047800AA000430A900B930A800A80B412AA90B8A
:10048800412AAA0B412A482A493083120313A100A2
:100498008530A2000A128A11BA270A128A11831219
:1004A80003138C1E582A592A532A61301A06031D31
:1004B8005E2A5F2A642AFF30AE000030AF00622B4C
:1004C80062301A06031D692A6A2A6D2AAE01AF0135
:1004D800622B63301A06031D722A732A782A7F302A
:1004E800AE000030AF00622B622B32301A06031DBB
:1004F8007E2A7F2A3F2B063083120313AA0013306B
:10050800A900AD30A800A80B872AA90B872AAA0B37
:10051800872A5C3083120313A1008430A2000A12D8
:100528008A11BA270A128A11023083120313AA0009
:100538000430A900B930A800A80BA02AA90BA02A4A
:10054800AA0BA02AA72AED3083120313A100853035
:10055800A2000A128A11BA270A128A1102308312DB
:100568000313AA000430A900B930A800A80BBA2ABE
:10057800A90BBA2AAA0BBA2AC12A06308312031376
:10058800A1008630A2000A128A11BA270A128A111B
:10059800831203138C1ED12AD22ACC2A61301A0660
:1005A800031DD72AD82A012B06141030A8002808C2
:1005B800A0007D080A128A11B0230A128A1111308C
:1005C80083120313A8002808A0007C080A128A11C5
:1005D800B0230A128A110B3083120313AA002630A3
:1005E800A9005D30A800A80BF72AA90BF72AAA0BC7
:1005F800F72A831203130610622B62301A06031DB2
:10060800062B072B782A1F10861410300A128A111D
:10061800D2230A128A1183120313A8002808FA00A9
:1006280011300A128A11D2230A128A118312031373
:10063800A8002808F9007A08A8000310280C7D3EB5
:1006480095007908A8000310280C7D3E9B001A30FD
:1006580083120313AA005E30A9006D30A800A80B0E
:10066800332BA90B332BAA0B332B3A2B83120313EF
:100678001F148610622B33301A06031D442B452B9A
:10068800622B063083120313AA001330A900AD3081
:10069800A800A80B4D2BA90B4D2BAA0B4D2B0430F2
:1006A80083120313A1008530A2000A128A11BA2707
:1006B8000A128A11F80183120313861208000A121B
:1006C8008A112C270A128A11831203139F147803A4
:1006D800031D6F2B702B752B0A128A1121200A1209
:1006E8008A11831203139F187A2B7B2B6B2B1F0CF9
:1006F800AB002B0C0F39003A031D832B842B892B5D
:100708001F08C33904389F00A22B1F0CAB002B0C09
:100718000F39013A031D912B922B972B1F08C339D0
:1007280008389F00A22B1F0CAB002B0C0F39023A84
:10073800031D9F2BA02BA22BC3309F05843083124F
:100748000313AB00AB0BA62B0000831203139F14FB
:100758006B2B0A128A110C2883120313A10020089C
:10076800831203178D0083120313210883120317C2
:100778008C008B13831603178C130C1555308D00C2
:10078800AA308D008C14831203130D1ECC2BCD2B95
:10079800C72B0D12831603170C11080083120313BD
:1007A800A1002108831203178D00831603178C13E9
:1007B8000C14831203170C0883120313A0002008DB
:1007C800A20022080800FF1BF12B83137F18831750
:1007D8000008840A0319FF0A08007F087F398A0085
:0A07E8000408840A0319FF0A8200C6
:100800000D340D3451347534653420347634653408
:100810006C346F3463346934643461346434203448
:100820006C34653420347134753469346534723411
:100830006134203461346C342034703472346F3459
:10084000703475346C3473346F34723420347934CA
:100850002034623461346E3464346534723461340B
:100860003A3400340D340D34513475346534203449
:1008700064346934723465346334633469346F3496
:100880006E34203464346534733465346134203418
:1008900063346F346C346F346334613472342034B5
:1008A00065346C34203473346534723476346F3488
:1008B000203431343A3400340D340D34513475342D
:1008C00065342034643465347334653461342034E1
:1008D00068346134633465347234203465346E3482
:1008E00020346C34613420346D3465346D346F34AD
:1008F00072346934613420344534453450345234D0
:100900004F344D343A3400340D340D345134753491
:1009100065342034663475346E34633469346F342E
:100920006E3420346C346534203471347534693459
:100930006534723461342034643461347234203468
:1009400061346C342034633461347034C334B33470
:100950003A3400340D345134753465342034613404
:100960006334633469346F346E34203464346534F2
:10097000733465346134203465346A3465346334E7
:1009800075347434613472343F343A3420340D3465
:1009900000342034203420342034283432342934B4
:1009A0002034203443346F346E3466346934673411
:1009B00075347234613472342034453445345034E3
:1009C00052344F344D34203420340D3400340D343F
:1009D0000D3451347534653420346D346F347434CF
:1009E0006F34723420346434653473346534613464
:1009F000203463346F346E34743472346F346C3436
:100A0000613472343A3400340D340D3420344E34B1
:100A10004F3453342034563445344D344F345334EA
:100A2000203445344E3420344C3441342034503456
:100A300052344F34583449344D3441340D34003439
:100A40000D340D34203428346134293452342034A8
:100A500064346534203472346134703469346434FD
:100A60006934733469346D346F3400342034203485
:100A70002034203428343334293420345434653439
:100A800072346D3469346E346134723420340D3410
:100A900000340D340D3420342834633429342034A8
:100AA000443420346434653420346434653475341B
:100AB0006E346134203400340D340D342034283445
:100AC0003134293453346534723476346F346D34B0
:100AD0006F3474346F3472342034313400340D3454
:100AE0000D3420342834323429345334653472348C
:100AF00076346F346D346F3474346F347234203420
:100B0000323400342034203420342034283431343A
:100B1000293420344D346F3474346F347234653476
:100B2000733420340D3400340D340D342034283423
:100B300062342934503420346434653420347034C1
:100B40006134723461347234203400340D340D3425
:100B5000203428346234293449347A347134753479
:100B60006934653472346434613400340D340D34C6
:100B70002034283433342934443443342034313459
:100B8000203479342034323400340D340D342034A0
:100B90002834613429344434653472346534633420
:100BA0006834613400340D340D3420342834613419
:100BB000293441347234723469346234613400341B
:100BC0000D340D34203428346334293443346534EF
:100BD0006E34743472346F3400340D340D34203478
:100BE00028346134293447347234613462346134D6
:100BF000723400340D340D342034283462342934F6
:100C00004134623461346A346F3400340D340D344D
:100C100020342834623429344C34653465347234D9
:100C20000034831203130C1F162E172E842E1F0C54
:100C3000F300730C0F39003A031D1F2E202E452E92
:100C40001E08F3007308FD007D08F3000310730C09
:100C50007F3E95007D080139F300F30EF30D170870
:100C60007306DF39730697007D08F3000730031021
:100C7000F30CFF3E031D372E7308F400F40E170823
:100C80007406EF3974069700832E1F0CF300730C63
:100C90000F39013A031D4D2E4E2E732E1E08F30000
:100CA0007308FC007C08F3000310730C7F3E9B006C
:100CB0007C080139F300F30EF30D1D087306DF39CC
:100CC00073069D007C08F30007300310F30CFF3E11
:100CD000031D652E7308F400F40E1D087406EF3929
:100CE00074069D00832E1F0CF300730C0F39023A1B
:100CF000031D7B2E7C2E832E1E08F300F401730847
:100D0000AE007408AF000C130B1C872E882EF92E32
:100D100086188B2E8C2EBF2E1F10061717300A1226
:100D20008A15EF270A128A11F3007308FA001830A7
:100D30000A128A15EF270A128A11F3007308F900C4
:100D40007A08F3000310730C7F3E8312031395009F
:100D50007908F3000310730C7F3E9B000B30F50005
:100D60002630F4005D30F300F30BB42EF40BB42EF8
:100D7000F50BB42EBB2E831203131F14F82E061886
:100D8000C22EC32EE62E86171730F3007308F0002C
:100D90007D080A128A11E2270A128A111830F3001C
:100DA0007308F0007C080A128A11E2270A128A11DD
:100DB0000B30F5002630F4005D30F300F30BDE2E2F
:100DC000F40BDE2EF50BDE2EE52EF82E0619E92E9D
:100DD000EA2EF62E7808031DEE2EEF2EF32E861641
:100DE000F801F80AF82E8612F801F82E0613861379
:100DF0000B100B1DFC2EFD2E252F0130831203132B
:100E0000AC070318AD0A0030AD072F08803AF30095
:100E10002D08803A7302031D0F2F2C082E02031891
:100E2000122F132F182F83120313081188111C2F50
:100E300083120313081588152C0A2D04031D212F76
:100E4000222F242FAC01AD010B1177088A00760EFA
:100E50008300FE0E7E0E09000730831603178800FC
:100E60008901073083160313850088010730860047
:100E70000730950007309600831203138601850121
:100E80008801831603130F178F160F160F149F1365
:100E90001F129F12831203131F083F3980389F00CF
:100EA000C3309F05843083120313A000A00B562F7C
:100EB0000000831203131F14843083120313A00055
:100EC000A00B602F00008316031307158714FA3058
:100ED00092003F308312031397051D08F0390C3838
:100EE0009D001708F0390C3897000F3095000F302F
:100EF0009B00CF3097051D129D128316031381129C
:100F000081110108F83903388100F6308312031388
:100F100081008C100330920412158C1C902F912F9D
:100F20008D2F8C1083160313071187108312031360
:100F30000C13831603130C170B178B178B160B113F
:100F40008B150B1081131514951416149614181282
:100F50001815831603178715CF30831603139900CE
:100F60009A01831203139817181318168316031384
:100F700098160800233083120313A3002308A60049
:100F8000C72F27080A128A15E5270A128A11831229
:100F900003132208A4002108A300A10A0319A20A2E
:100FA0002408FF00230884000A128A11E7230A128A
:100FB0008A11A5002508A7002708031DE02FE12FAF
:100FC000C12F0800F1007008831203178D0071080B
:100FD0008C008B13831603178C130C1555308D0062
:100FE000AA308D008C14831203130D1EF82FF92FD5
:0C0FF000F32F0D12831603170C110800DC
:101FCA0083120313A0000C1EEB2FEC2FE82F20081E
:101FDA0099000800F1007108831203178D00831617
:101FEA0003178C130C14831203170C08F0007008E3
:061FFA00F200720808006D
:04400E00C420FF3F8C
:00000001FF
