:020000040000FA
:060000000A128A110C280F
:10000800FE00030EF2000A08F3000A128A117F2884
:100018000A128A110F28F601F701F801F901830184
:100028000A128A11E7280730831603178800890106
:100038000730831603138500880183120313850193
:100048008801831603130F178F160F160F149F13AB
:100058001F129F12831203131F083F3980389F0015
:10006800C3309F058530F400F40B3828831203133E
:100078001F148530F400F40B3F288316031307156B
:100088008714FA3092003F308312031397051D0836
:10009800F0390C389D001708F0390C3897000F30EC
:1000A80095000F309B00CF3097051D129D128316C7
:1000B8000313811281110108F83903388100F630E1
:1000C8008312031381008C100330920412158C1CC8
:1000D8006E286F286B288C1083160313071187105E
:1000E800831203130C13831603130C170B178B17A8
:1000F8008B160B110800831203130C1F8428852804
:10010800B6281F0CF000700C0F39003A031D8D281B
:100118008E2895281E08F0000310700C7F3E95006D
:10012800B5281F0CF000700C0F39013A031D9D28EB
:100138009E28A5281E08F0000310700C7D3E9B0029
:10014800B5281F0CF000700C0F39023A031DAD28BA
:10015800AE28B5281E08F000F1017008F8007108F3
:10016800F9000C130B1DB928BA28E0280130F6074E
:100178000318F70A0030F7077908803AF000770883
:10018800803A7002031DCA28760878020318CD2821
:10019800CE28D3288312031308108810D728831277
:1001A800031308148814760A7704031DDC28DD2855
:1001B800DF28F601F7010B1173088A00720E83001D
:1001C800FE0E7E0E09000A128A1117200A128A11E1
:1001D800831203139F149F18F228F328EF281F0C8B
:1001E800F500750C0F39003A031DFB28FC2801297E
:1001F8001F08C33904389F001A291F0CF500750C15
:100208000F39013A031D09290A290F291F08C33983
:1002180008389F001A291F0CF500750C0F39023A8F
:10022800031D172918291A29C3309F058530F500A1
:10023800F50B1C29831203139F14EF280A128A1145
:020248000C2880
:04400E00C430FF3F7C
:00000001FF
