:020000040000FA
:060000000A128A110C280F
:10000800FE00030EF6000A08F7000A128A11112EE4
:100018000A128A110F28F801F901FA01FB01FC0103
:10002800FD0183120313AC01AD01AE01AF01B001B4
:10003800B10183010A128A11542BAA3083120313C7
:10004800A1008430A2000A128A11BD270A128A115F
:10005800023083120313AA000430A900B930A800A3
:10006800A80B3428A90B3428AA0B34283B28823043
:1000780083120313A1008530A2000A128A11BD273A
:100088000A128A11023083120313AA000430A9004D
:10009800B930A800A80B4E28A90B4E28AA0B4E2849
:1000A8005528C93083120313A1008430A2000A1214
:1000B8008A11BD270A128A11023083120313AA007B
:1000C8000430A900B930A800A80B6828A90B682833
:1000D800AA0B68286F28363083120313A1008530D5
:1000E800A2000A128A11BD270A128A118312031369
:1000F8008C1E7F2880287A2831301A06031D85280F
:1001080086286A2AE73083120313A1008430A200EC
:100118000A128A11BD270A128A11023083120313A8
:10012800AA000430A900B930A800A80B9928A90B87
:100138009928AA0B9928A0285C3083120313A100E0
:100148008530A2000A128A11BD270A128A110230CC
:1001580083120313AA000430A900B930A800A80B21
:10016800B328A90BB328AA0BB328BA286F30831277
:100178000313A1008530A2000A128A11BD270A12B2
:100188008A11023083120313AA000430A900B9307F
:10019800A800A80BCD28A90BCD28AA0BCD28D428B8
:1001A800B63083120313A1008530A2000A128A1107
:1001B800BD270A128A11831203138C1EE428E5282E
:1001C800DF2831301A06031DEA28EB28652932306A
:1001D80083120313A1008430A2000A128A11BD27DA
:1001E8000A128A11023083120313AA000430A900EC
:1001F800B930A800A80BFE28A90BFE28AA0BFE28D8
:100208000529C53083120313A1008530A2000A1204
:100218008A11BD270A128A11023083120313AA0019
:100228000430A900B930A800A80B1829A90B18296F
:10023800AA0B18291F29A63083120313A1008530A1
:10024800A2000A128A11BD270A128A1102308312EB
:100258000313AA000430A900B930A800A80B32295A
:10026800A90B3229AA0B32293929E030831203134A
:10027800A1008530A2000A128A11BD270A128A112C
:10028800831203138C1E49294A29442961301A060E
:10029800031D4F2950295329FA30950065296230EA
:1002A8001A06031D582959295C297D3095006529AE
:1002B80063301A06031D612962296529BC3095003F
:1002C800652932301A06031D6A296B29E52984300D
:1002D80083120313A1008430A2000A128A11BD27D9
:1002E8000A128A11023083120313AA000430A900EB
:1002F800B930A800A80B7E29A90B7E29AA0B7E2954
:100308008529D33083120313A1008530A2000A1275
:100318008A11BD270A128A11023083120313AA0018
:100328000430A900B930A800A80B9829A90B98296E
:10033800AA0B98299F29FA3083120313A10085304C
:10034800A2000A128A11BD270A128A1102308312EA
:100358000313AA000430A900B930A800A80BB229D9
:10036800A90BB229AA0BB229B929E03083120313C9
:10037800A1008530A2000A128A11BD270A128A112B
:10038800831203138C1EC929CA29C42961301A068D
:10039800031DCF29D029D329FA309B00E5296230E3
:1003A8001A06031DD829D929DC297D309B00E529A7
:1003B80063301A06031DE129E229E529BC309B00B8
:1003C800E52933301A06031DEA29EB29532B00309F
:1003D80083120313A1008430A2000A128A11BD27D8
:1003E8000A128A11023083120313AA000430A900EA
:1003F800B930A800A80BFE29A90BFE29AA0BFE29D3
:10040800052A203083120313A1008530A2000A12A6
:100418008A11BD270A128A11023083120313AA0017
:100428000430A900B930A800A80B182AA90B182A6B
:10043800AA0B182A1F2A943083120313A1008530AF
:10044800A2000A128A11BD270A128A1102308312E9
:100458000313AA000430A900B930A800A80B322A57
:10046800A90B322AAA0B322A392A493083120313DC
:10047800A1008530A2000A128A11BD270A128A112A
:10048800831203138C1E492A4A2A442A61301A0609
:10049800031D4F2A502A552AFF30AE000030AF0006
:1004A800532B62301A06031D5A2A5B2A5E2AAE01B4
:1004B800AF01532B63301A06031D632A642A692A85
:1004C8007F30AE000030AF00532B532B32301A066A
:1004D800031D6F2A702A302B063083120313AA00DB
:1004E8001330A900AD30A800A80B782AA90B782AE8
:1004F800AA0B782A5C3083120313A1008430A2006F
:100508000A128A11BD270A128A11023083120313B4
:10051800AA000430A900B930A800A80B912AA90B99
:10052800912AAA0B912A982AED3083120313A1006D
:100538008530A2000A128A11BD270A128A110230D8
:1005480083120313AA000430A900B930A800A80B2D
:10055800AB2AA90BAB2AAA0BAB2AB22A0630831204
:100568000313A1008630A2000A128A11BD270A12BD
:100578008A11831203138C1EC22AC32ABD2A613032
:100588001A06031DC82AC92AF22A06141730A80019
:100598002808A0007D080A128A11A1230A128A11CC
:1005A800183083120313A8002808A0007C080A1238
:1005B8008A11A1230A128A110B3083120313AA008D
:1005C8002630A9005D30A800A80BE82AA90BE82A64
:1005D800AA0BE82A831203130610532B62301A065B
:1005E800031DF72AF82A692A1F10861417300A12E1
:1005F8008A11E5270A128A1183120313A800280812
:10060800FA0018300A128A11E5270A128A11831291
:100618000313A8002808F9007A08A8000310280C7A
:100628007D3E95007908A8000310280C7D3E9B00AC
:100638001A3083120313AA005E30A9006D30A80097
:10064800A80B242BA90B242BAA0B242B2B2B8312AE
:1006580003131F148610532B33301A06031D352B32
:10066800362B532B063083120313AA001330A9002C
:10067800AD30A800A80B3E2BA90B3E2BAA0B3E2B96
:10068800043083120313A1008530A2000A128A11D4
:10069800BD270A128A11F801831203138612080073
:1006A8000A128A112F270A128A11831203139F1420
:1006B8007803031D602B612B662B0A128A112120F7
:1006C8000A128A11831203139F186B2B6C2B5C2B55
:1006D8001F0CAB002B0C0F39003A031D742B752B24
:1006E8007A2B1F08C33904389F00932B1F0CAB00CB
:1006F8002B0C0F39013A031D822B832B882B1F08E3
:10070800C33908389F00932B1F0CAB002B0C0F39F3
:10071800023A031D902B912B932BC3309F058430F5
:1007280083120313AB00AB0B972B00008312031348
:100738009F145C2B0A128A110C2883120313A10040
:100748002008831203178D008312031321088312D4
:1007580003178C008B13831603178C130C15553055
:100768008D00AA308D008C14831203130D1EBD2B2F
:10077800BE2BB82B0D12831603170C110800F100BD
:100788007008831203178D0071088C008B13831671
:1007980003178C130C1555308D00AA308D008C145E
:1007A800831203130D1ED92BDA2BD42B0D128316AB
:1007B80003170C110800FF1BE92B83137F188317FD
:1007C8000008840A0319FF0A08007F087F398A0095
:1007D8000408840A0319FF0A820083120313A00085
:0E07E8000C1EF72BF82BF42B200899000800AC
:100800000D340D3451347534653420347634653408
:100810006C346F3463346934643461346434203448
:100820006C34653420347134753469346534723411
:100830006134203461346C342034703472346F3459
:10084000703475346C3473346F34723420347934CA
:100850002034623461346E3464346534723461340B
:100860003A3400340D340D34513475346534203449
:1008700064346934723465346334633469346F3496
:100880006E34203464346534733465346134203418
:1008900063346F346C346F346334613472342034B5
:1008A00065346C34203473346534723476346F3488
:1008B000203431343A3400340D340D34513475342D
:1008C00065342034643465347334653461342034E1
:1008D00068346134633465347234203465346E3482
:1008E00020346C34613420346D3465346D346F34AD
:1008F00072346934613420344534453450345234D0
:100900004F344D343A3400340D340D345134753491
:1009100065342034663475346E34633469346F342E
:100920006E3420346C346534203471347534693459
:100930006534723461342034643461347234203468
:1009400061346C342034633461347034C334B33470
:100950003A3400340D345134753465342034613404
:100960006334633469346F346E34203464346534F2
:10097000733465346134203465346A3465346334E7
:1009800075347434613472343F343A3420340D3465
:1009900000342034203420342034283432342934B4
:1009A0002034203443346F346E3466346934673411
:1009B00075347234613472342034453445345034E3
:1009C00052344F344D34203420340D3400340D343F
:1009D0000D3451347534653420346D346F347434CF
:1009E0006F34723420346434653473346534613464
:1009F000203463346F346E34743472346F346C3436
:100A0000613472343A3400340D340D3420344E34B1
:100A10004F3453342034563445344D344F345334EA
:100A2000203445344E3420344C3441342034503456
:100A300052344F34583449344D3441340D34003439
:100A40000D340D34203428346134293452342034A8
:100A500064346534203472346134703469346434FD
:100A60006934733469346D346F3400342034203485
:100A70002034203428343334293420345434653439
:100A800072346D3469346E346134723420340D3410
:100A900000340D340D3420342834633429342034A8
:100AA000443420346434653420346434653475341B
:100AB0006E346134203400340D340D342034283445
:100AC0003134293453346534723476346F346D34B0
:100AD0006F3474346F3472342034313400340D3454
:100AE0000D3420342834323429345334653472348C
:100AF00076346F346D346F3474346F347234203420
:100B0000323400342034203420342034283431343A
:100B1000293420344D346F3474346F347234653476
:100B2000733420340D3400340D340D342034283423
:100B300062342934503420346434653420347034C1
:100B40006134723461347234203400340D340D3425
:100B5000203428346234293449347A347134753479
:100B60006934653472346434613400340D340D34C6
:100B70002034283433342934443443342034313459
:100B8000203479342034323400340D340D342034A0
:100B90002834613429344434653472346534633420
:100BA0006834613400340D340D3420342834613419
:100BB000293441347234723469346234613400341B
:100BC0000D340D34203428346334293443346534EF
:100BD0006E34743472346F3400340D340D34203478
:100BE00028346134293447347234613462346134D6
:100BF000723400340D340D342034283462342934F6
:100C00004134623461346A346F3400340D340D344D
:100C100020342834623429344C34653465347234D9
:100C20000034831203130C1F162E172E842E1F0C54
:100C3000F300730C0F39003A031D1F2E202E452E92
:100C40001E08F3007308FD007D08F3000310730C09
:100C50007F3E95007D080139F300F30EF30D170870
:100C60007306DF39730697007D08F3000730031021
:100C7000F30CFF3E031D372E7308F400F40E170823
:100C80007406EF3974069700832E1F0CF300730C63
:100C90000F39013A031D4D2E4E2E732E1E08F30000
:100CA0007308FC007C08F3000310730C7F3E9B006C
:100CB0007C080139F300F30EF30D1D087306DF39CC
:100CC00073069D007C08F30007300310F30CFF3E11
:100CD000031D652E7308F400F40E1D087406EF3929
:100CE00074069D00832E1F0CF300730C0F39023A1B
:100CF000031D7B2E7C2E832E1E08F300F401730847
:100D0000AE007408AF000C130B1C872E882EF92E32
:100D100086188B2E8C2EBF2E1F10061717300A1226
:100D20008A15EF270A128A11F3007308FA001830A7
:100D30000A128A15EF270A128A11F3007308F900C4
:100D40007A08F3000310730C7F3E8312031395009F
:100D50007908F3000310730C7F3E9B000B30F50005
:100D60002630F4005D30F300F30BB42EF40BB42EF8
:100D7000F50BB42EBB2E831203131F14F82E061886
:100D8000C22EC32EE62E86171730F3007308F0002C
:100D90007D080A128A11C3230A128A111830F3003F
:100DA0007308F0007C080A128A11C3230A128A1100
:100DB0000B30F5002630F4005D30F300F30BDE2E2F
:100DC000F40BDE2EF50BDE2EE52EF82E0619E92E9D
:100DD000EA2EF62E7808031DEE2EEF2EF32E861641
:100DE000F801F80AF82E8612F801F82E0613861379
:100DF0000B100B1DFC2EFD2E282F01308312031328
:100E0000AC070318AD0A0030AD070B118330810029
:100E10002D08803AF3002F08803A7302031D122F29
:100E20002E082C02031C152F162F1B2F83120313C1
:100E3000081188111F2F83120313081588152D031D
:100E40002C04031D242F252F272FAC01AD010B11DE
:100E500077088A00760E8300FE0E7E0E09000730AA
:100E60008316031788008901073083160313850052
:100E700088010730860007309500073096008312FE
:100E80000313860185018801831603130F178F163C
:100E90000F160F149F131F129F12831203131F08A4
:100EA0003F3980389F00C3309F058430831203137D
:100EB000A000A00B592F0000831203131F148430CD
:100EC00083120313A000A00B632F000083160313EB
:100ED00007158714FA3092003F30831203139705E9
:100EE0001D08F0390C389D001708F0390C389700B0
:100EF0000F3095000F309B00CF3097051D129D12CB
:100F000083160313811281110108F8390338810017
:100F100083308312031381008C1003309204121566
:100F20008C1C932F942F902F8C1083160313071172
:100F30008710831203130C13831603130C170B175C
:100F40008B178B160B118B150B1081131514951421
:100F50001614961418121815831603178715CF3018
:100F60008316031399009A01831203139817181319
:100F700018168316031398160800233083120313E0
:100F8000A3002308A600CA2F27080A128A11F123FA
:100F90000A128A11831203132208A4002108A30055
:100FA000A10A0319A20A2408FF00230884000A12D8
:100FB0008A11DF230A128A11A5002508A700270835
:100FC000031DE32FE42FC42F080083120313A10095
:100FD0002108831203178D00831603178C130C143A
:100FE000831203170C0883120313A0002008A20029
:040FF00022080800CB
:101FDE00F1007108831203178D00831603178C13FB
:101FEE000C14831203170C08F0007008F20072082C
:021FFE000800D9
:04400E00C420FF3F8C
:00000001FF
