:020000040000FA
:060000000A128A110C280F
:10000800FE00030EF6000A08F7000A128A111E28DD
:100018000A128A110F28F801F901FA01FB01FC0103
:1000280083120313A001A101A201A30183010A12F3
:100038008A117929831203130C1F23282428652881
:100048001F0CF300730C0F39003A031D2C282D28C0
:100058003C281E08F3000310730C7F3E95001E0811
:10006800F3000310730C7F3EF4007408FA00642850
:100078001F0CF300730C0F39013A031D442845285F
:1000880054281E08F3000310730C7F3E9B001E08C3
:10009800F3000310730C7F3EF4007408F900642821
:1000A8001F0CF300730C0F39023A031D5C285D28FE
:1000B80064281E08F300F4017308A2007408A30062
:1000C8000C130B1C68286928CA2886186C286D2808
:1000D800A0281F10061717300A128A11D6210A12F3
:1000E8008A11F3007308FA0018300A128A11D6210F
:1000F8000A128A11F3007308F9007A08F300031052
:10010800730C7F3E8312031395007908F3000310E4
:10011800730C7F3E9B000B30F5002630F4005D30F9
:10012800F300F30B9528F40B9528F50B95289C28DC
:10013800831203131F14C9280618A328A428C72844
:1001480086171730F3007308F0007A080A128A112C
:10015800BA210A128A111830F3007308F0007908DE
:100168000A128A11BA210A128A110B30F5002630B8
:10017800F4005D30F300F30BBF28F40BBF28F50B38
:10018800BF28C628C928061386130B100B1DCD28B7
:10019800CE28F628013083120313A0070318A10AFA
:1001A8000030A1072308803AF3002108803A73023F
:1001B800031DE028200822020318E328E428E92880
:1001C8008312031308118811ED28831203130815ED
:1001D8008815200A2104031DF228F328F528A00118
:1001E800A1010B1177088A00760E8300FE0E7E0EA1
:1001F8000900073083160317880089010730831622
:10020800031385008801073086000330950003300A
:100218009600831203138601850188018316031350
:100228000F178F160F160F149F131F129F1283128A
:1002380003131F083F3980389F00C3309F0584305F
:1002480083120313A400A40B2729000083120313AD
:100258001F14843083120313A400A40B3129000057
:100268008316031307158714FA3092003F30831260
:10027800031397051D08F0390C389D001708F0394D
:100288000C3897000F3095000F309B00CF30970542
:100298001D129D1283160313811281110108F8396A
:1002A80003388100F6308312031381008C10033069
:1002B800920412158C1C612962295E298C10831600
:1002C800031307118710831203130C1383160313E8
:1002D8000C170B178B178B160B118B150B10811323
:1002E800151495141614961408000A128A11FD2084
:1002F8000A128A11831203139F149F1884298529CF
:1003080081291F0CA500250C0F39003A031D8D29E2
:100318008E2993291F08C33904389F00AC291F0C64
:10032800A500250C0F39013A031D9B299C29A129F9
:100338001F08C33908389F00AC291F0CA500250CDD
:100348000F39023A031DA929AA29AC29C3309F05F0
:10035800843083120313A500A50BB0290000831273
:1003680003139F1481290A128A110C28F1007008BE
:10037800831203178D0071088C008B1383160317E3
:100388008C130C1555308D00AA308D008C148312F7
:1003980003130D1ED029D129CB290D12831603175B
:1003A8000C110800F1007108831203178D008316E1
:1003B80003178C130C14831203170C08F000700831
:0603C800F20072080800BB
:04400E00C420FF3F8C
:00000001FF
